{
  "contractName": "MultiSigWallet",
  "abi": [
    {
      "inputs": [
        {
          "internalType": "address[]",
          "name": "_owners",
          "type": "address[]"
        },
        {
          "internalType": "uint256",
          "name": "_countForConsensus",
          "type": "uint256"
        }
      ],
      "payable": false,
      "stateMutability": "nonpayable",
      "type": "constructor"
    },
    {
      "anonymous": false,
      "inputs": [
        {
          "indexed": false,
          "internalType": "uint256",
          "name": "requestID",
          "type": "uint256"
        },
        {
          "indexed": false,
          "internalType": "address",
          "name": "approver",
          "type": "address"
        }
      ],
      "name": "RequestApproved",
      "type": "event"
    },
    {
      "anonymous": false,
      "inputs": [
        {
          "indexed": false,
          "internalType": "uint256",
          "name": "requestID",
          "type": "uint256"
        }
      ],
      "name": "RequestExecuted",
      "type": "event"
    },
    {
      "anonymous": false,
      "inputs": [
        {
          "indexed": false,
          "internalType": "address",
          "name": "whoRaised",
          "type": "address"
        },
        {
          "indexed": false,
          "internalType": "uint256",
          "name": "amount",
          "type": "uint256"
        },
        {
          "indexed": false,
          "internalType": "uint256",
          "name": "requestID",
          "type": "uint256"
        }
      ],
      "name": "RequestRaised",
      "type": "event"
    },
    {
      "anonymous": false,
      "inputs": [
        {
          "indexed": false,
          "internalType": "uint256",
          "name": "requestID",
          "type": "uint256"
        },
        {
          "indexed": false,
          "internalType": "address",
          "name": "revoker",
          "type": "address"
        }
      ],
      "name": "RevokeApproval",
      "type": "event"
    },
    {
      "constant": true,
      "inputs": [],
      "name": "countForConsensus",
      "outputs": [
        {
          "internalType": "uint256",
          "name": "",
          "type": "uint256"
        }
      ],
      "payable": false,
      "stateMutability": "view",
      "type": "function"
    },
    {
      "constant": true,
      "inputs": [
        {
          "internalType": "uint256",
          "name": "",
          "type": "uint256"
        }
      ],
      "name": "owners",
      "outputs": [
        {
          "internalType": "address",
          "name": "",
          "type": "address"
        }
      ],
      "payable": false,
      "stateMutability": "view",
      "type": "function"
    },
    {
      "constant": true,
      "inputs": [
        {
          "internalType": "uint256",
          "name": "",
          "type": "uint256"
        }
      ],
      "name": "transactions",
      "outputs": [
        {
          "internalType": "address",
          "name": "requester",
          "type": "address"
        },
        {
          "internalType": "address",
          "name": "to",
          "type": "address"
        },
        {
          "internalType": "uint256",
          "name": "requestID",
          "type": "uint256"
        },
        {
          "internalType": "uint256",
          "name": "value",
          "type": "uint256"
        },
        {
          "internalType": "bytes",
          "name": "data",
          "type": "bytes"
        },
        {
          "internalType": "uint256",
          "name": "confirmationCount",
          "type": "uint256"
        },
        {
          "internalType": "bool",
          "name": "executed",
          "type": "bool"
        }
      ],
      "payable": false,
      "stateMutability": "view",
      "type": "function"
    },
    {
      "constant": false,
      "inputs": [
        {
          "internalType": "uint256",
          "name": "amount",
          "type": "uint256"
        },
        {
          "internalType": "address",
          "name": "_to",
          "type": "address"
        }
      ],
      "name": "raiseRequest",
      "outputs": [],
      "payable": false,
      "stateMutability": "nonpayable",
      "type": "function"
    },
    {
      "constant": false,
      "inputs": [
        {
          "internalType": "uint256",
          "name": "_requestID",
          "type": "uint256"
        }
      ],
      "name": "executeRequest",
      "outputs": [],
      "payable": false,
      "stateMutability": "nonpayable",
      "type": "function"
    },
    {
      "constant": false,
      "inputs": [
        {
          "internalType": "uint256",
          "name": "_requestID",
          "type": "uint256"
        }
      ],
      "name": "approveRequest",
      "outputs": [],
      "payable": false,
      "stateMutability": "nonpayable",
      "type": "function"
    },
    {
      "constant": false,
      "inputs": [
        {
          "internalType": "uint256",
          "name": "_requestID",
          "type": "uint256"
        }
      ],
      "name": "revokeApproval",
      "outputs": [],
      "payable": false,
      "stateMutability": "nonpayable",
      "type": "function"
    }
  ],
  "bytecode": "0x60806040523480156200001157600080fd5b506040516200181e3803806200181e833981810160405260408110156200003757600080fd5b81019080805160405193929190846401000000008211156200005857600080fd5b838201915060208201858111156200006f57600080fd5b82518660208202830111640100000000821117156200008d57600080fd5b8083526020830192505050908051906020019060200280838360005b83811015620000c6578082015181840152602081019050620000a9565b5050505090500160405260200180519060200190929190505050600082511162000158576040517f08c379a000000000000000000000000000000000000000000000000000000000815260040180806020018281038252601d8152602001807f596f752073686f756c6420737570706c7920736f6d65206f776e65727300000081525060200191505060405180910390fd5b60008111620001cf576040517f08c379a000000000000000000000000000000000000000000000000000000000815260040180806020018281038252601c8152602001807f436f6e73656e73757320636f756e742073686f756c64206265203e300000000081525060200191505060405180910390fd5b81518111156200022b576040517f08c379a0000000000000000000000000000000000000000000000000000000008152600401808060200182810382526044815260200180620017da6044913960600191505060405180910390fd5b60008090505b8251811015620003e25760008382815181106200024a57fe5b60200260200101519050600260008273ffffffffffffffffffffffffffffffffffffffff1673ffffffffffffffffffffffffffffffffffffffff16815260200190815260200160002060009054906101000a900460ff161562000315576040517f08c379a00000000000000000000000000000000000000000000000000000000081526004018080602001828103825260128152602001807f4e6f74206120756e69717565206f776e6572000000000000000000000000000081525060200191505060405180910390fd5b6001600260008373ffffffffffffffffffffffffffffffffffffffff1673ffffffffffffffffffffffffffffffffffffffff16815260200190815260200160002060006101000a81548160ff02191690831515021790555060008190806001815401808255809150509060018203906000526020600020016000909192909190916101000a81548173ffffffffffffffffffffffffffffffffffffffff021916908373ffffffffffffffffffffffffffffffffffffffff1602179055505050808060010191505062000231565b508060018190555050506113de80620003fc6000396000f3fe608060405234801561001057600080fd5b506004361061007d5760003560e01c8063832b47051161005b578063832b47051461013c5780639ace38c21461018a578063b1e130fc146102b7578063d7d1bbdb146102e55761007d565b8063025e7c271461008257806329b7e63f146100f05780636e417c691461010e575b600080fd5b6100ae6004803603602081101561009857600080fd5b8101908080359060200190929190505050610313565b604051808273ffffffffffffffffffffffffffffffffffffffff1673ffffffffffffffffffffffffffffffffffffffff16815260200191505060405180910390f35b6100f861034f565b6040518082815260200191505060405180910390f35b61013a6004803603602081101561012457600080fd5b8101908080359060200190929190505050610355565b005b6101886004803603604081101561015257600080fd5b8101908080359060200190929190803573ffffffffffffffffffffffffffffffffffffffff1690602001909291905050506106dd565b005b6101b6600480360360208110156101a057600080fd5b81019080803590602001909291905050506109e1565b604051808873ffffffffffffffffffffffffffffffffffffffff1673ffffffffffffffffffffffffffffffffffffffff1681526020018773ffffffffffffffffffffffffffffffffffffffff1673ffffffffffffffffffffffffffffffffffffffff1681526020018681526020018581526020018060200184815260200183151515158152602001828103825285818151815260200191508051906020019080838360005b8381101561027657808201518184015260208101905061025b565b50505050905090810190601f1680156102a35780820380516001836020036101000a031916815260200191505b509850505050505050505060405180910390f35b6102e3600480360360208110156102cd57600080fd5b8101908080359060200190929190505050610b15565b005b610311600480360360208110156102fb57600080fd5b8101908080359060200190929190505050610ebe565b005b6000818154811061032057fe5b906000526020600020016000915054906101000a900473ffffffffffffffffffffffffffffffffffffffff1681565b60015481565b600260003373ffffffffffffffffffffffffffffffffffffffff1673ffffffffffffffffffffffffffffffffffffffff16815260200190815260200160002060009054906101000a900460ff16610414576040517f08c379a000000000000000000000000000000000000000000000000000000000815260040180806020018281038252600c8152602001807f4e6f7420616e206f776e6572000000000000000000000000000000000000000081525060200191505060405180910390fd5b80600380549050811061048f576040517f08c379a000000000000000000000000000000000000000000000000000000000815260040180806020018281038252601f8152602001807f546865207472616e73616374696f6e20646f65736e277420657869737473210081525060200191505060405180910390fd5b816003818154811061049d57fe5b906000526020600020906008020160060160009054906101000a900460ff161561052f576040517f08c379a00000000000000000000000000000000000000000000000000000000081526004018080602001828103825260188152602001807f5265717565737420616c7265616479206578656375746564000000000000000081525060200191505060405180910390fd5b3373ffffffffffffffffffffffffffffffffffffffff166003848154811061055357fe5b906000526020600020906008020160000160009054906101000a900473ffffffffffffffffffffffffffffffffffffffff1673ffffffffffffffffffffffffffffffffffffffff16146105f1576040517f08c379a000000000000000000000000000000000000000000000000000000000815260040180806020018281038252602f815260200180611334602f913960400191505060405180910390fd5b6001546003848154811061060157fe5b906000526020600020906008020160050154101561066a576040517f08c379a00000000000000000000000000000000000000000000000000000000081526004018080602001828103825260218152602001806113896021913960400191505060405180910390fd5b60016003848154811061067957fe5b906000526020600020906008020160060160006101000a81548160ff0219169083151502179055507fe78cc898d3a084e2554c1addbb022ecded14709a7ae0c1a85cb965d9e91d73d3836040518082815260200191505060405180910390a1505050565b600260003373ffffffffffffffffffffffffffffffffffffffff1673ffffffffffffffffffffffffffffffffffffffff16815260200190815260200160002060009054906101000a900460ff1661079c576040517f08c379a000000000000000000000000000000000000000000000000000000000815260040180806020018281038252600c8152602001807f4e6f7420616e206f776e6572000000000000000000000000000000000000000081525060200191505060405180910390fd5b60036040518060e001604052803373ffffffffffffffffffffffffffffffffffffffff1681526020018373ffffffffffffffffffffffffffffffffffffffff16815260200160038054905081526020018481526020016000368080601f016020809104026020016040519081016040528093929190818152602001838380828437600081840152601f19601f82011690508083019250505050505050815260200160018152602001600015158152509080600181540180825580915050906001820390600052602060002090600802016000909192909190915060008201518160000160006101000a81548173ffffffffffffffffffffffffffffffffffffffff021916908373ffffffffffffffffffffffffffffffffffffffff16021790555060208201518160010160006101000a81548173ffffffffffffffffffffffffffffffffffffffff021916908373ffffffffffffffffffffffffffffffffffffffff16021790555060408201518160020155606082015181600301556080820151816004019080519060200190610934929190611268565b5060a0820151816005015560c08201518160060160006101000a81548160ff0219169083151502179055505050507ff5de1ae5e759c59a26b978c84e15ad882682d63ad2c69c713d9ba33e3d940b6e3383600160038054905003604051808473ffffffffffffffffffffffffffffffffffffffff1673ffffffffffffffffffffffffffffffffffffffff168152602001838152602001828152602001935050505060405180910390a15050565b600381815481106109ee57fe5b90600052602060002090600802016000915090508060000160009054906101000a900473ffffffffffffffffffffffffffffffffffffffff16908060010160009054906101000a900473ffffffffffffffffffffffffffffffffffffffff1690806002015490806003015490806004018054600181600116156101000203166002900480601f016020809104026020016040519081016040528092919081815260200182805460018160011615610100020316600290048015610af25780601f10610ac757610100808354040283529160200191610af2565b820191906000526020600020905b815481529060010190602001808311610ad557829003601f168201915b5050505050908060050154908060060160009054906101000a900460ff16905087565b600260003373ffffffffffffffffffffffffffffffffffffffff1673ffffffffffffffffffffffffffffffffffffffff16815260200190815260200160002060009054906101000a900460ff16610bd4576040517f08c379a000000000000000000000000000000000000000000000000000000000815260040180806020018281038252600c8152602001807f4e6f7420616e206f776e6572000000000000000000000000000000000000000081525060200191505060405180910390fd5b806003805490508110610c4f576040517f08c379a000000000000000000000000000000000000000000000000000000000815260040180806020018281038252601f8152602001807f546865207472616e73616374696f6e20646f65736e277420657869737473210081525060200191505060405180910390fd5b8160038181548110610c5d57fe5b906000526020600020906008020160060160009054906101000a900460ff1615610cef576040517f08c379a00000000000000000000000000000000000000000000000000000000081526004018080602001828103825260188152602001807f5265717565737420616c7265616479206578656375746564000000000000000081525060200191505060405180910390fd5b60038381548110610cfc57fe5b906000526020600020906008020160070160003373ffffffffffffffffffffffffffffffffffffffff1673ffffffffffffffffffffffffffffffffffffffff16815260200190815260200160002060009054906101000a900460ff16610dad576040517f08c379a00000000000000000000000000000000000000000000000000000000081526004018080602001828103825260268152602001806113636026913960400191505060405180910390fd5b600060038481548110610dbc57fe5b906000526020600020906008020160070160003373ffffffffffffffffffffffffffffffffffffffff1673ffffffffffffffffffffffffffffffffffffffff16815260200190815260200160002060006101000a81548160ff021916908315150217905550600160038481548110610e3057fe5b9060005260206000209060080201600501600082825403925050819055507f0f847c06e610471ae42a74f3dfce349f9548f2f83808fd91d6332e06680cceab8333604051808381526020018273ffffffffffffffffffffffffffffffffffffffff1673ffffffffffffffffffffffffffffffffffffffff1681526020019250505060405180910390a1505050565b600260003373ffffffffffffffffffffffffffffffffffffffff1673ffffffffffffffffffffffffffffffffffffffff16815260200190815260200160002060009054906101000a900460ff16610f7d576040517f08c379a000000000000000000000000000000000000000000000000000000000815260040180806020018281038252600c8152602001807f4e6f7420616e206f776e6572000000000000000000000000000000000000000081525060200191505060405180910390fd5b806003805490508110610ff8576040517f08c379a000000000000000000000000000000000000000000000000000000000815260040180806020018281038252601f8152602001807f546865207472616e73616374696f6e20646f65736e277420657869737473210081525060200191505060405180910390fd5b816003818154811061100657fe5b906000526020600020906008020160060160009054906101000a900460ff1615611098576040517f08c379a00000000000000000000000000000000000000000000000000000000081526004018080602001828103825260188152602001807f5265717565737420616c7265616479206578656375746564000000000000000081525060200191505060405180910390fd5b600383815481106110a557fe5b906000526020600020906008020160070160003373ffffffffffffffffffffffffffffffffffffffff1673ffffffffffffffffffffffffffffffffffffffff16815260200190815260200160002060009054906101000a900460ff1615611157576040517f08c379a000000000000000000000000000000000000000000000000000000000815260040180806020018281038252602681526020018061130e6026913960400191505060405180910390fd5b60016003848154811061116657fe5b90600052602060002090600802016005016000828254019250508190555060016003848154811061119357fe5b906000526020600020906008020160070160003373ffffffffffffffffffffffffffffffffffffffff1673ffffffffffffffffffffffffffffffffffffffff16815260200190815260200160002060006101000a81548160ff0219169083151502179055507ff3dc904660a0ea05aba8dfa1e21fbc4fb2914be2a3029da7b0fdd3e5eee20ddb8333604051808381526020018273ffffffffffffffffffffffffffffffffffffffff1673ffffffffffffffffffffffffffffffffffffffff1681526020019250505060405180910390a1505050565b828054600181600116156101000203166002900490600052602060002090601f016020900481019282601f106112a957805160ff19168380011785556112d7565b828001600101855582156112d7579182015b828111156112d65782518255916020019190600101906112bb565b5b5090506112e491906112e8565b5090565b61130a91905b808211156113065760008160009055506001016112ee565b5090565b9056fe596f75206861766520616c726561647920617070726f766564207468652072657175657374214f6e6c7920746865207265717565737465722063616e20657865637574652074686973207472616e73616374696f6e596f752068617665206e6f7420617070726f7665642074686520726571756573742079657421546865726520617265206e6f7420656e6f75676820636f6e6669726d6174696f6ea265627a7a72315820625da899ecd0dd7267d220d58917a3fae8fac189c52674776446e9e34ba190c764736f6c63430005100032436f6e73656e73757320636f756e742073686f756c64206265206c657373207468616e206f7220657175616c20746f20746865206e756d626572206f66206f776e657273",
  "source": "pragma solidity >=0.4.21 <0.7.0;\n\ncontract MultiSigWallet{\n    address[] public owners;\n    uint public countForConsensus;\n    mapping (address=>bool) isOwner;\n    \n    struct Transaction{\n        address requester;\n        address to;\n        uint requestID;\n        uint value;\n        bytes data;\n        uint confirmationCount;\n        bool executed;\n        mapping( address=>bool) isApproved;\n    }\n\n    Transaction[] public transactions;\n    //Events\n    event RequestRaised(address whoRaised,uint amount,uint requestID);\n    event RequestExecuted(uint requestID);\n    event RequestApproved(uint requestID,address approver);\n    event RevokeApproval(uint requestID,address revoker);\n\n    // receive() external payable {}\n\n    // fallback() external payable {}\n\n    constructor (address[] memory _owners,uint _countForConsensus) public {\n        require(_owners.length>0,\"You should supply some owners\");\n        require(_countForConsensus>0 ,\"Consensus count should be >0\");\n        require(_countForConsensus <= _owners.length,\"Consensus count should be less than or equal to the number of owners\");\n        for (uint256 index = 0; index < _owners.length; index++) {\n            address temp = _owners[index];\n            require(!isOwner[temp],\"Not a unique owner\");\n            isOwner[temp] = true;\n            owners.push(temp);\n        }\n        countForConsensus = _countForConsensus;\n    }\n\n    modifier onlyOwner() {\n        require(isOwner[msg.sender],\"Not an owner\");\n        _;\n    }\n\n    modifier requestExists(uint _txIndex) {\n        require(_txIndex<transactions.length,\"The transaction doesn't exists!\");\n        _;\n    }\n\n    modifier requestExecuted(uint _txIndex){\n        require(!transactions[_txIndex].executed,\"Request already executed\");\n        _;\n    }\n\n    function raiseRequest(uint amount,address _to) public onlyOwner{\n        transactions.push(Transaction({\n            requester : msg.sender,\n            to:_to,\n            data : msg.data,\n            value : amount,\n            requestID : transactions.length,\n            confirmationCount:1,\n            executed:false\n        }));\n        \n        emit RequestRaised(msg.sender, amount, transactions.length -1);\n    }\n\n    function executeRequest(uint _requestID) public onlyOwner requestExists(_requestID) requestExecuted(_requestID){\n        require(transactions[_requestID].requester==msg.sender,\"Only the requester can execute this transaction\");\n        require(transactions[_requestID].confirmationCount>=countForConsensus,\"There are not enough confirmation\");\n        \n        transactions[_requestID].executed = true;\n        emit RequestExecuted(_requestID);\n    }\n\n    function approveRequest(uint _requestID) public onlyOwner requestExists(_requestID) requestExecuted(_requestID){\n        require(!transactions[_requestID].isApproved[msg.sender],\"You have already approved the request!\");\n\n        transactions[_requestID].confirmationCount+=1;\n        transactions[_requestID].isApproved[msg.sender]=true;\n        emit RequestApproved(_requestID, msg.sender);\n    }\n\n    function revokeApproval(uint _requestID) public onlyOwner requestExists(_requestID) requestExecuted(_requestID){\n        \n        require(transactions[_requestID].isApproved[msg.sender],\"You have not approved the request yet!\");\n\n        transactions[_requestID].isApproved[msg.sender] = false;\n        transactions[_requestID].confirmationCount -=1;\n        emit RevokeApproval(_requestID, msg.sender);\n    }\n}\n",
  "sourcePath": "/Users/praffulsahu/Documents/Crypto/MultiSig/contracts/MultiSigWallet.sol",
  "compiler": {
    "name": "solc",
    "version": "0.5.16+commit.9c3226ce.Emscripten.clang"
  },
  "schemaVersion": "3.3.3",
  "updatedAt": "2021-06-07T18:13:53.879Z",
  "devdoc": {
    "methods": {}
  },
  "userdoc": {
    "methods": {}
  }
}